:1000000000000120190200000102000003020000AC
:1000100005020000070200000902000000000000C5
:100020000000000000000000000000000B020000C3
:100030000D020000000000000F020000110200008D
:10004000D110000013020000130200001302000090
:1000500013020000130200009113000013020000BD
:10006000130200001302000013020000130200003C
:10007000130200001302000013020000130200002C
:1000800013020000D10A0000130200001302000056
:100090006D0B0000130200001302000013020000A9
:1000A00013020000130200001302000013020000FC
:1000B00019180000130200000000000000000000FA
:1000C0001302000029180000391800001302000074
:1000D00013020000130200001302000000000000E1
:1000E0000000000000000000000000000000000010
:1000F0000000000000000000000000000000000000
:1001000000000000000000000000000000000000EF
:1001100000000000000000000000000000000000DF
:1001200000000000000000000000000000000000CF
:1001300000000000000000000000000000000000BF
:1001400000000000000000000000000000000000AF
:10015000000000000000000000000000000000009F
:10016000000000000000000000000000000000008F
:10017000000000000000000000000000000000007F
:10018000000000000000000000000000000000006F
:10019000000000000000000000000000000000005F
:1001A000000000000000000000000000000000004F
:1001B000000000000000000000000000000000003F
:1001C000000000000000000000000000000000002F
:1001D000000000000000000000000000000000001F
:1001E000000000000000000000000000000000000F
:1001F00000000000000000000000000000000000FF
:10020000FEE7FEE7FEE7FEE7FEE7FEE7FEE7FEE7C6
:10021000FEE7FEE7704700BF1048804710484FF0E8
:100220000701884385460F4880470F48016841F41D
:1002300070010160BFF34F8FBFF36F8F00F01CB8E8
:100240000A480B490B4A884207D0521A05D0037856
:1002500001300B700131013AF9D1704715020000ED
:1002600000000120611D000088ED00E0F02000008A
:100270000000002000000020354936480A1A02D04C
:10028000072291438D46344934480A1A06D0072282
:10029000914381F30988022282F31488304831495E
:1002A000314A00F044F831483149324A00F03FF811
:1002B00031483249324A00F03AF832483249334A3A
:1002C00000F035F832483349334A00F030F833480B
:1002D0003349344A00F02BF833483449344A00F0AB
:1002E00026F834483449002200F02CF833483449C9
:1002F000002200F027F833483349091A082902DBA5
:10030000002202604160314A90471F481F498842DD
:1003100005D00268043003B4904703BCF7E700201F
:100320008646EC4600200021294A9047FEE7884295
:1003300007D0521A05D0037801300B700131013A11
:10034000F9D17047884202D002700130FAE7704755
:100350000000012000E0002000000120000001203A
:10036000C8AE01000000002014000020D4030000EB
:10037000D4030000F0200000C8AE010000000020FF
:1003800000000020F0200000F0200000F02000001D
:10039000F0200000F0200000F0200000F02000001D
:1003A000F0200000C8AE0100DCAE01001400002007
:1003B0001400002014000020C50A0020C80A0020F4
:1003C000C80A0020C80A0020C82A002041020000F4
:0403D00029040000FC
:1003D4000E3803281ED8DFE800F0020B131B0E486A
:1003E4000023B7EE000A042242F2BA7100F00AB9FF
:1003F4000023B7EE000A022244F6D2310748F5E79B
:100404000023B7EE000A012248F60E010448EDE786
:1004140000F032B9704700BFEAB20000A4DA00006D
:100424007626010008B500F0C5FD002000F0DAFDD5
:1004340000F0F6FC0C49022001F006FC01F052FC2D
:100444000021032000F04AF90023B7EE000A02223B
:1004540049F2FA11054800F0D5F800F095F908B909
:1004640020BFFDE720BFF8E7D5030000F02000001F
:10047400F0B5FFEE006A00249FED296A9FED295A2A
:10048400DFED294AB7EE007AF6EE005AB0EE664A7E
:100494004FF400762746B4FBF3F5954225D24D5729
:1004A40007EE905A60EE243AF8EEE77A67EEA37A04
:1004B400F4EEE67AF1EE10FA1ADDF4EEC77AF1EE14
:1004C40010FA15D577EE877A67EE867A67EEA57A05
:1004D400FCEEE77A17EE905A20F814500134B4F584
:1004E400007FD8D1B4FBF3F0F0BDF0EE457AE9E734
:1004F400F5EE407AF1EE10FA02D14FF48075EBE795
:10050400F4EEC47AF1EE10FA02D820F81470E5E79C
:10051400F4EEC77AF1EE10FAA8BF20F81460DDE714
:1005240000000044000000000000003C012810B559
:1005340002D0022832D010BD284B1B787BB1284B47
:10054400284A1868284B12681968284B93ED000A4A
:10055400274B01441B782748FFF78AFF09E0254A07
:100564004FF480710133B3F5007F22F8021BF9D1F7
:1005740000201D491B4A0B6814680344201A1060AC
:100584001D480B6000688342D5D31C4C236803B319
:10059400013B2360002310600B60CCE70F4B1B78FA
:1005A4006BB10F4B0F4A18680F4B126819680F4B49
:1005B40093ED000A0E4B01441B781148CCE7104A16
:1005C4004FF480710133B3F5007F22F8021BF9D197
:1005D400CEE71360014A1370ADE700BF2900002085
:1005E4001C0000201800002024000020000000202F
:1005F4000C0000204C0000202000002014000020EB
:100604004C04002013B5114C2478ECB1104C20603C
:100614001048016010480270104A114882ED000A27
:10062400104A00241460104A1360104B104A1960D9
:10063400012313700E2200920E4AA2F1100101F060
:100644008DF8204602B010BD0320FBE728000020EF
:100654001C000020200000200C00002000000020CE
:1006640004000020240000201400002018000020B2
:10067400290000203C00002008B50B4B1B788BB1EF
:1006840000210A4801F0B2F8094A00234FF48071AE
:100694000133B3F5007FA2F8001422F8021BF7D14E
:1006A400002008BD0320FCE72800002004000020EF
:1006B4004C00002010B5064C227822B1FFF7DCFF75
:1006C400044801F02FF8044A00231370237010BD6E
:1006D400280000200400002029000020F0B5244C4C
:1006E400237885B005460E460BB1FFF7E3FF65F0AE
:1006F4007F038DF80430FF238DF805304FF6FF7328
:10070400ADF806300623ADF8083000238DF80A3022
:10071400184A19484FF4007301A9039300F064FFC9
:1007240020BB164B02461F464FF480710132B2F5CE
:10073400007FA3F8001423F8021BF7D13EB105F59E
:10074400E0754FF0A04340F2031243F825200C4B10
:100754000C4D1F604FF4007100229980C3E90222FE
:100764001D619982C3E906220123237005B0F0BDFF
:100774002800002031050000040000204C00002067
:100784002C0000204C040020024B187808B1024BC6
:100794001878704728000020290000202DE9F04F28
:1007A400394E87B04FF00009384B1B785FFA89F552
:1007B400AB4202D807B0BDE8F08F354BD3F800A0A8
:1007C4001AF835000124D6E9001EA0F12002C0F178
:1007D400200304FA02F224FA03F3134304FA00FC9C
:1007E400009301EA0C030293009B0EEA03030393B4
:1007F400DDE9022313430AEBC50B41D0009B21EA38
:100804000C012EEA0303C6E9001300F0B5FD1AF843
:1008140035502049A5F12002C5F1200304FA02F263
:1008240024FA03F31343D1E900C2AC40134004EAB1
:100834000C0105930024C3B2CDE90034009A04915D
:10084400C5F12003A5F1200122FA03F302FA01F80D
:1008540048EA03081346AB401F46DDE90434444527
:1008640008BFBB420CD1DBF804304BB19BF801103C
:100874004A1E51425141081A414241412846984773
:1008840009F1010990E700BF800800204C0800200E
:1008940088080020780800202DE9F041804620488F
:1008A40000F042FBD0BB0125A8F12004C8F12003CD
:1008B40025FA03F305FA04F41C431A4BD3E9001296
:1008C40005FA08F501EA050602EA040756EA0700F4
:1008D4001E461DD1404600F04FFD134BD3E90012D4
:1008E40088B129432243C3E90012D6E900231C43FB
:1008F4000E4B0B4819681543C6E900540022BDE8A5
:10090400F04100F0CFBA21EA050122EA0402EAE745
:1009140021EA050522EA0404C3E90054BDE8F08194
:100924005408002080080020780800205008002087
:10093400042A2DE9F34105460C4616463AD900F03F
:1009440059FCD8B11C4B1D491D601D4BDFF8848038
:100954001C701C4B00221E600023C1E900231A49AD
:10096400C1E90023013CE4B200260327FF2C0CD18B
:10097400164A1748002100F083FA03E000F002FC55
:100984000028DFD002B0BDE8F08123B205EBC3023A
:1009940001A992788DF8052015F833008DF80660CA
:1009A40042468DF8047000F02FFC013CE4B20028AC
:1009B400DCD0E7E70720E5E7880800207808002076
:1009C4004C0800205008002080080020A1070000E7
:1009D40084AE01009D08000070B5084D084E002447
:1009E4002B789C4201D3002070BD3368012113F899
:1009F400340000F07DFC0134F2E700BF4C08002015
:100A040088080020094A537891780133DBB299426F
:100A140008BF0023117899421FBF03705078182330
:100A240003FB002014BF0430002070478C08002012
:100A340037B5044600200D4600F098FA0DF1070082
:100A4400FFF7E0FF90B10570094B9DF80720446063
:100A54005A700024002000F08BFA24B9054B4FF49F
:100A64008012C3F80021204603B030BD0424F1E70E
:100A74008C08002000E100E0024B4FF43C6043F09E
:100A84000103184790AE010038B50C4B0C4C4FF4E1
:100A94000032C3F8802001254FF48033C4F8483372
:100AA400C4F808336560FFF7E7FF064BA560002430
:100AB4001C60FFF7E1FF044B1C7038BD00E100E04F
:100AC40000100140A809002099090020F8B51F4B27
:100AD4001F491B680025C1F84051C1F84451C1F8B1
:100AE4004851C1F84C51C1F80051C1F804514BB3FD
:100AF400D1F8044517490968641A24F07F442F4645
:100B04001A68A24209D8A41A15441A7CDE691AB1DB
:100B14001F74D3E905209047AEB90F4A0F4B1178E3
:100B24001B788B4205D10133DBB2022B08BF0023B3
:100B3400137012780A4B43F822500A4B4FF4801278
:100B4400C3F80021F8BD3346DAE700BFAC09002042
:100B540000100140A8090020A5090020A4090020D4
:100B64009C09002000E100E02DE9F04FA14AA249D0
:100B740013780978A14D994285B03CD00133DBB29A
:100B8400022B08BF002313709D4912789D4B0F68F8
:100B940053F822003B1823F07F4300220B602B689C
:100BA40016461446944613B942B12B6006E0196800
:100BB40081420ED902B12B60091A196001272B68F2
:100BC400DFF848A201934FF00008BEB9DFF844B241
:100BD40066E0401A0C44D968C3F800C0D3F81CE09E
:100BE40031B13A1922F07F42C3E90121DE611E4688
:100BF40001227346D7E700263746E0E73446F66914
:100C04007F4A63681268DFF810C2A068991A21F05D
:100C14007F41614500F2A6800144216001222274D3
:100C24002A680023C4E90133E361002A40F0A38069
:100C34002C60CAE75A1C9BF80210D2B291428BF87E
:100C4400002004BF00228BF80020182202FB03B30B
:100C54001A799C68022A1CD0032A12D0012A1FD1B7
:100C6400207CE8B9D3E90312A2605A69E2609A6968
:100C7400654BA2611B78002B0CBF0B4603466360D7
:100C8400BEE700222B681146002B67D142B12B60CE
:100C940006E029680A468946002A5AD100232374AB
:100CA4009BF800309BF801209A42C3D12B68B8F11D
:100CB400000F04D1019A9A4201D1002F43D0002B96
:100CC40073D0D3F800A0514D4D4BD5F804751C6872
:100CD400DFF848813E1B98F8003026F07F46033643
:100CE4009BB94FF48033C5F84433C5F80433484BFB
:100CF4004FF400324FF00109C3F880211A60C5F89F
:100D04000090FFF7B9FE88F80090B2452CBF544418
:100D1400A41924F07F44C5F84045D5F80435DB1BFD
:100D240023F07F43E41B033324F07F44A3420AD916
:100D3400D5F80435C5F84035FFF79EFE344B4FF423
:100D44000032C3F80021304B00221A7005B0BDE810
:100D5400F08F94422CD09146D2699DE719740122F8
:100D6400DB6991E7D31A23F07F43834234BFC31A6C
:100D74000023236052E721681368994213D8591A53
:100D84001160E26154E7091AD8691A4638B103467A
:100D940018688842F7D3401A186018461346216031
:100DA400E061DC6111E71346F2E7FFF76DFECAE785
:100DB4004C4511D1CB692B6073B9DFF844E00120B5
:100DC400CDE90212CAF80800CEF800300E4B1870B4
:100DD400FFF752FEDDE902121368D269C9F81C203C
:100DE40012B11068034413602B68994218BF4FF086
:100DF400010853E7A4090020A5090020AC0900203C
:100E0400A80900209C090020980900200010014036
:100E140000E100E08C080020FEFF7F00990900201B
:100E240008B5FFF731FE104B00200B2218809A7092
:100E34000E4B18600E4B18700E4B18700E4B4FF47F
:100E44008012C021C3F8802183F814131A6002F1C0
:100E54008042A2F56F22C2F8080583F81113074BEC
:100E6400D2F804251A6008BD8C080020AC090020C3
:100E7400A4090020A509002000E100E0A809002041
:100E8400074B9B784BB132B128B10368187C20B969
:100E940059745A617047072070470820704700BF93
:100EA4008C0800202DE9F3411C4EB37804460D460E
:100EB40017468BB380B304292CD9436963B3437CAD
:100EC4000020012B0CBF88464FF0000800F04EF8BC
:100ED4000DF10700FFF796FDD0B101230370104B0D
:100EE4004460D3F80435C0E90487C0E902359DF8AD
:100EF400073073700024002000F03AF824B9094B3D
:100F04004FF48012C3F80021204602B0BDE8F081FE
:100F14000424F0E70724F7E70824F5E78C08002009
:100F24000010014000E100E0064A92783AB130B185
:100F3400426922B1002202740221FFF779BD082020
:100F4400704700BF8C08002072B6024A1368013350
:100F540013607047B0090020034A1368013B136013
:100F640003B962B6704700BFB0090020FFF7ECBFB9
:100F7400FFF7F2BF38B5074C051E04F1080318BF8C
:100F84001C4623682BB11A6822605B682846984780
:100F9400F7E738BDBC09002020B9054B01225A707F
:100FA400FFF7E8BF012802D1014A9070F8E77047C3
:100FB400B409002038B5094C23786BB9084863603C
:100FC400A3602361E36000F037F8054600F040F8C1
:100FD40001232370284638BD8525FBE7B40900208A
:100FE4009D0F000038B5134CA378054603F0FF00AD
:100FF40073B115B16B68012098470020FFF7B6FF65
:10100400E3680133E3600020BDE83840FFF7B0BF78
:10101400FFF7ACFF25B1226913463BB92A6025616D
:10102400E368002BECD100F025F8E9E79D42F7D006
:101034001B68F2E7B4090020044A137923B901219B
:10104400106091801846704785207047C8090020B9
:10105400074B1A68D2075FBFC02283F8002301221E
:101064001A604FF080430122C3F81825704700BF6F
:1010740000E100E037B5114B00221A601B680193B0
:10108400019B4FF080430222C3F804230C4AD0682A
:1010940040F08073D3600B4B1C6844F0010119606D
:1010A4005D685968491BB1F50A5FFAD31C60064BA9
:1010B400D06001221A6003B030BD00BF04010040BB
:1010C400F0ED00E0001000E008000040154B07B50B
:1010D4001A687AB100221A601B680093009B4FF0D3
:1010E40080430122C3F808230F4B587910B95A7171
:1010F4001B6898470D4B1A6882B100221A601B685E
:101104000193019B4FF080430222C3F80823064B4E
:101114001B68012003B05DF804EB184703B05DF8C9
:1011240004FB00BF00010040C80900200401004086
:1011340000F1804000F5C040002382B003600368E2
:101144000193019B02B07047800000F1A040D0F8E9
:10115400003723F44033C0F80037D0F8003743EAAF
:101164000141C0F800177047054B4FF0FF320728C4
:1011740043F8202084BF1B1883F84820704700BF21
:10118400D009002010B5174C94F8583043BB04F133
:1011940030032021FF22013911F0FF0103F8012B54
:1011A400F9D1C8B2FFF7E0FF01310C29F9D10422CB
:1011B40000210D4800F067FF0C4BC02283F8062382
:1011C40040221A604FF4BE70FFF7B2FF084B4FF095
:1011D4000042C3F80423012384F85830002010BDD2
:1011E4000820FCE7D0090020240A002000E100E0E8
:1011F40000600040034B93F85800003018BF0120F2
:10120400704700BFD0090020F0B5374B1C1894F983
:101214003040002C1C4664DA8D78C5F34005002D5F
:101224000BBF082300230C260826B34201D1042057
:10123400F0BD54F8237001373FD1261844F8232019
:1012440086F8303015B9E21882F848008A785507D4
:1012540013D4D60733D5820002F1A042D2F8005746
:1012640025F00205C2F80057204EC50800F0070714
:101274000122BA40775D3A4372558A780D7812F0AC
:10128400020225D09B0003F1804303F5C043020210
:10129400D3F8101521F4473121F44071C3F8101527
:1012A4002D04D3F8101502F4F85205F440352A43FE
:1012B4000A43C3F810250020BAE70133B5E74D7897
:1012C40000F5E0724FF0A046AD0046F82250CBE79F
:1012D400083B234493F8501041EA851583F8505095
:1012E400E9E70820A4E700BFD0090020240A002071
:1012F40038B51F4C251895F93020072A17DD2244EC
:1013040092F84810890903290CD14FF0A043D3F86F
:101314001035C34013F0010F08BF0221BDE8384067
:10132400FFF712BF012914BF03210221F6E7D3B24C
:10133400072B1CD8930003F1804303F5C043D3F873
:10134400100540F00100C3F8100502F140008000D0
:1013540080B2FFF7EDFE51B195F9303054F82330E7
:101364002BB1012303FA02F2024BC3F8042338BD64
:10137400D0090020006000404FF0A043D3F810359E
:1013840023FA00F000F00100704700002DE9F04F4F
:1013940085B00024594D01944FF48072012102F16B
:1013A400804303F5C04390B21B68012B06D1D5F8E6
:1013B40004330B4202D0FFF7BBFE0C430432B2F5F8
:1013C400907F4FEA4101EAD14D4B1B68012B0AD1B2
:1013D4004FF4BE70FFF7ACFE4FF0A04344F000445E
:1013E400D3F81035019314F0FF0F1AD0454F01269E
:1013F4000025344210D0AB0003F1804303F5C04311
:10140400D3F81005D3F8101557F8253023B1C1F3DC
:101414000141C0F3042098470135082D4FEA4606E0
:10142400E7D1002C63DA00224FF0FF33CDE9022329
:10143400344D354E0024A24601274FF0A04816F93A
:10144400012B531C46D0D2B222F0C0094FEAD90175
:1014540004A8084402F0070310F804CC07FA03F3C5
:101464001CEA030F36D005EB090C92099CF930C035
:1014740055F82CB0BBF1000F0AD1032A2AD10DF183
:10148400080E1EF801C04CEA030C0EF801C001E07E
:10149400032AF4D009F5E07110F80C0C58F8211067
:1014A4001842C1F3014105D0022913D1032A0BD1FB
:1014B400114604E003290DD1032A05D1022148462F
:1014C400FFF742FE0134E4B2BBF1000F02D0114633
:1014D4004846D8470AF1010ABAF1040FAFD134B132
:1014E4004FF0A043019AD3F81035934202D105B0CE
:1014F400BDE8F08F0193029B03939AE700600040DC
:101504007C610040D0090020200A002000234350C1
:1015140082B043580193019B02B07047D0F8103158
:1015240070B505460C4653B14FF48871FFF7EEFFD2
:1015340063795A0703D523680BB101209847D5F87E
:1015440014315BB14FF48A712846FFF7DFFF6379EA
:101554001B0703D523680BB102209847D5F81C312B
:101564005BB128464FF48E71FFF7D0FF607910F01D
:10157400100002D1236803B19847D5F8043163B150
:101584004FF482712846FFF7C1FF012323712368BA
:101594001BB10320BDE87040184770BD38B51D4627
:1015A40002230B710B684A7104467BB112F0040FDD
:1015B4000CBF82219221100748BF41F02001D306BD
:1015C400236848BF21F08001C3F8001320684FF45A
:1015D4008271FFF79BFF206812F0800F05BF012383
:1015E40043514019002038BD2DE9F04F07794A4C8A
:1015F4004FEAC70804EB080385B01B7906460D467D
:10160400002B40F0878044F8372001396A4605F101
:1016140003094FF0010A4FF0A0404FF0030B11F8FB
:1016240001CFBCF1FF0F71D02CF0800313600AFAD4
:1016340003FE03F5E0731CF0800F14BFC0F808E547
:10164400C0F80CE540F823B0494502F10402E6D1A4
:101654003068009BC0F86035019BC0F86435029B7C
:10166400C0F86835039BC0F86C350123C0F8003519
:10167400AA792B896979C0F80C15C0F80425C0F83B
:1016840008356B89C0F810350023C0F800324FF4D8
:101694008E71C0F80033FFF739FF4FF4887130685A
:1016A400FFF734FF4FF48A713068FFF72FFF4FF4D0
:1016B40082713068FFF72AFF54F83730FBB1336882
:1016C4002A791B0B59B20029A8BF01F16040DBB293
:1016D400B8BF03F00F054FEA4212B4BF0F4800F53C
:1016E4006140D2B2B4BF425580F8002303F01F0317
:1016F400012202FA03F34909094A42F82130444419
:1017040001232371002005B0BDE8F08F4FF0FF33B3
:10171400136099E70820F6E72C0A002014ED00E096
:1017240000E100E010B504790068020B53B2012116
:101734005B0902F01F0201FA02F22033054941F865
:101744002320054B03EBC4030022C0F800251A71C3
:1017540010BD00BF00E100E02C0A0020F0B40E46EA
:10176400047917493768049D01EBC4010468C4F87F
:101774002075B788C4F82475B768F668C4F8287566
:10178400C4F82C651668C4F840659688C4F84465A6
:101794009668D268C4F84865C4F84C25C4F8143572
:1017A400EB070AD415F0020318BF0423C4F800326F
:1017B400EAB20823F0BCFFF7F1BE1023F6E700BF3E
:1017C4002C0A00200379084A016802EBC30213794A
:1017D400D1F80411DBB219B9981E18BF0120704763
:1017E40001201071704700BF2C0A002038B505464F
:1017F4000C46FFF7E7FF50B92B6801225A602846D0
:10180400FFF7E0FF18B9002CF9D1204638BD0124B8
:10181400FBE7000001490248FFF780BE2C0A0020C4
:1018240000C0014001490248FFF778BE340A002095
:101834000010024001490248FFF770BE3C0A002034
:1018440000200240054A4FF0A043105CD3F8043551
:1018540023FA00F0C04300F00100704796AE010087
:10186400044B1A5C012393404FF0A042C2F80C359C
:10187400704700BF96AE0100044B1A5C01239340ED
:101884004FF0A042C2F80835704700BF96AE010081
:1018940008B50020FFF7F0FF0120FFF7EDFF02205D
:1018A400FFF7EAFF0320BDE80840FFF7E5BF08B5EE
:1018B4000020FFF7D5FF0120FFF7D2FF0220FFF73A
:1018C400CFFF0320BDE80840FFF7CABF074A4FF027
:1018D400A041105CD1F804350122824022EA0300C1
:1018E4001340C1F80805C1F80C35704796AE0100E5
:1018F4000D2809D00E2809D00F2809D010280CBFB4
:1019040003204FF0FF3070470020704701207047DC
:1019140002207047C20708B501460CD54FF0A0431A
:101924000322C3F84427C3F84827C3F84C27C3F855
:101934005027FFF7ADFF8B070AD54FF0A0430C22C9
:10194400C3F83427C3F83827C3F83C27C3F8402723
:1019540008BD0220FFF7BABF2DE9F04781460D46C6
:10196400FFF7C6FF0328044604D8012D04D025B38D
:10197400022D2FD0BDE8F087194D47003A18A91859
:10198400AE5C4A7852B1DFF86880164842464FF49C
:101994000041FFF787FA08B988F800903B192B44F7
:1019A4009A78114B1A55002EE4D0104B1B68002B6B
:1019B400E0D03046BDE8F04718470A48FFF7B4FACC
:1019C400074B04EB440213449E78074B1B5DB34260
:1019D400D0D1E8E7024B00EB40041C446678E2E710
:1019E400A80A0020680A0020C10A0020BC0A0020BE
:1019F400440A002002210078FFF7AEBF08B5094B66
:101A04001B7853B10020FFF737FF0120FFF734FFA5
:101A14000320BDE80840FFF72FBFBDE80840FFF7EB
:101A240037BF00BF450A0020F8B57B4C2378054634
:101A34001BB100232370FFF7E1FF172D00F288800C
:101A4400DFE805F00C17174354657680888D888D80
:101A5400959A9A9A9A9AC4C9D1D9E4E4FFF7CEFF29
:101A64006E48FFF761FA6E4B002204461A70204656
:101A7400F8BD0020FFF7E6FEF8B10020FFF7FCFEFA
:101A8400022D0CBF4FF4E1614FF47A61644B1D7079
:101A94004FF400404FF4FA740025E0FB01454FF485
:101AA4007A7200232046294600F086FA0022014675
:101AB4005A48BDE8F840FFF7F5B9FFF7D1FE022D0B
:101AC4000CBFC8214FF4C871E0E70020FFF7BAFE4D
:101AD40040B10020FFF7D0FE4FF44871504B032271
:101AE4001A70D5E7FFF7BCFEC821F7E70020FFF71F
:101AF400A9FE38B10020FFF7BFFE4FF47A61484BCE
:101B04000422EDE7FFF7ACFE4FF4C871F7E70020BD
:101B1400FFF798FE48B10020FFF7AEFE404B0522C8
:101B24001A7041F69A110022C2E7FFF799FEF5E711
:101B34000020FFF7CBFE3A4B06221A70002240F633
:101B4400CD41B5E70020FFF78BFE354B07221A7015
:101B540000248CE701202070FFF7B8FEEEE7012097
:101B64002070FFF7B3FE00224FF48041A0E7FFF797
:101B74009EFE2B4B0C22EAE72A482B4EFFF7D4F9A2
:101B8400D5F1110504461CD0D8B9012D13D0C823B2
:101B94005D434FF400474FF4FA7000214FF47A721A
:101BA4000023C7FB050100F007FA224601461D4841
:101BB400FFF778F904460220FFF752FE0123337041
:101BC40055E70220FFF758FE0023F8E7FFF716FF5A
:101BD400134B1222BBE7FFF711FF0020FFF740FE73
:101BE4000F4B1322B3E7FFF709FF0120FFF738FE7D
:101BF4000B4B1422ABE7FFF701FF0020FFF730FE89
:101C04000120FFF72DFE064B1522A0E7FFF74FFE3C
:101C1400034B1D709CE700BFB80A0020880A00200F
:101C2400C00A0020480A0020450A0020044B1B6813
:101C3400DB0703D5034B1878FFF7F6BE704700BFE8
:101C4400B40A0020C00A002038B51C4B18601C4B95
:101C540010F00204054619601AD01A4B1A480E22D5
:101C64001A700F22DA7010229A7111225A7204210A
:101C740040F26662FEF75CFE044648B9FEF7ACFE2D
:101C8400044628B90146114A1148FFF7F9F80446F9
:101C9400EB0711D50120FFF73DFE6CB921460D4A33
:101CA4000D48FFF7EDF8044630B90C4A0C48012101
:101CB400BDE83840FFF7E4B8204638BDB40A002038
:101CC400BC0A0020A80A00209CAE0100F9190000FB
:101CD400C0AE0100311C0000C4AE01005719000061
:101CE400BCAE0100FEF778BE0C4B1B78062B10D15E
:101CF4000B4B1B681A070CD10A4B186800F0F00351
:101D0400302B08D000F0E000A0F1400358425841C5
:101D14007047002070470120704700BFE00F00F0BB
:101D2400E40F00F0E80F00F0094B1B78062B0CD1F0
:101D3400084B1B681A0708D1074B186800F0F0001D
:101D4400A0F130035842584170470020704700BF4B
:101D5400E00F00F0E40F00F0E80F00F008B5FFF723
:101D6400C3FF28B17D4B7E4A1B68C3F30423136071
:101D7400FFF7DAFF10B17B4B7B4A1A60FFF7B4FF21
:101D840028B17A4B7A4A1B68C3F342331360FFF7D6
:101D9400CBFF20B1774AD36823F08073D360FFF779
:101DA400A3FF40B14FF080430022C3F80C21C3F8D5
:101DB4001021C3F83825FFF7B7FF10B16E4B03228B
:101DC4001A60FFF7B1FF40B16C4B05221A60012283
:101DD4009A6700229A603F225A60694B1B78062B4F
:101DE40050D1684B1B6819074CD1674B1B6803F033
:101DF400F003502B46D14FF08052644BD2F80414B8
:101E0400C3F82015D2F80814C3F82415D2F80C141A
:101E1400C3F82815D2F81014C3F82C15D2F81414EA
:101E2400C3F83015D2F81814C3F83415D2F81C14BA
:101E3400C3F84015D2F82014C3F84415D2F824147A
:101E4400C3F84815D2F82814C3F84C15D2F82C144A
:101E5400C3F85015D2F83014C3F85415D2F834141A
:101E6400C3F86015D2F83814C3F86415D2F83C14DA
:101E7400C3F86815D2F84014C3F86C15D2F844249A
:101E8400C3F87025FFF730FF28B1414B414A1B6866
:101E940003F04F031360FFF727FF48B14FF080436F
:101EA400D3F80024D20744BF6FF00102C3F8002422
:101EB400394B1B68062B08D1384B1B68062B01BF16
:101EC400374A136843F480631360364AD2F8883083
:101ED40043F47003C2F88830BFF34F8FBFF36F8FA2
:101EE4004FF01023D3F80022002A03DBD3F8043286
:101EF400002B2FDA2C4B0122C3F80425D3F800243D
:101F0400002AFBD04FF010221521C2F80012D3F89A
:101F14000024002AFBD04FF010231522C3F804221A
:101F2400214B1A46D3F800140029FBD00021C3F832
:101F34000415D2F80034002BFBD0BFF34F8F19499E
:101F44001A4BCA6802F4E0621343CB60BFF34F8FAD
:101F540000BFFDE7164B174A1A6008BD24030010A2
:101F64004035014074C007400DF0ADBA4402001082
:101F74003C050040F0ED00E0A00500401056004094
:101F8400E00F00F0E40F00F0E80F00F000C00040A4
:101F940058020010E40E004030010010340100101B
:101FA4003C17004000ED00E000E001400400FA05A9
:101FB400100000200090D00353EA020C61D02DE9F8
:101FC400F04BB3FA83F51E0007BFB2FA82F502FAAA
:101FD40005F403FA05F41646C5F120051EBF22FADE
:101FE40005F73C43203556EA044C4FEA144418BF25
:101FF4000134A3464FF00009C846904271EB030C2C
:1020040039D3094207BFB0FA80F700FA07F6B1FAEC
:1020140081F701FA07F6C7F120071EBF20FA07FC73
:1020240046EA0C062037B6FBFBFC7F1B103F07F08B
:102034001F04C4F120060CFA04F42CFA06F644BF7B
:1020440034460026202FA4BF2646002454EA060C5A
:1020540008BF012418EB040849EB0609A4FB027C21
:10206400C01B06FB02CC04FB03CC71EB0C019042B9
:1020740071EB030CC5D20B46024649464046BDE807
:10208400F08BB2FBF3F28446002A2DD010F0030F3C
:1020940004D000F8011B013A26D0F7E7C9B241EA9F
:1020A400012141EA0141202A12D3A2F120022DE9A3
:1020B400F0030B460C460D460E460F4688468946ED
:1020C400A0E8FA03203AFBD2BDE8F00320320BD09B
:1020D400042A05D340F8041B043A05D0042AF9D293
:0C20E40000F8011B013AFBD16046704778
:1020F000FF00FF00FF00FF000000FF00FF00FF00E7
:1021000000000000FF00FF00FF000000000000FFD3
:1021100000FF0000FF0000FF0000000000000000C2
:10212000FF00FF00FF00FF00FF00FF00FF00FF00B7
:10213000FF0000FF000000FF00FFFEFFFFFEFF00AA
:10214000FF00FF00FFFF00FF00FF00FF0000FF0097
:1021500000FF00FF00FF00FF0000FF0000FF00FF86
:102160000000FF0000FF00FF000000FF00FF00FF75
:1021700000FF00FFFEFF00FF00FF00FF00FF00FF69
:1021800000FF000000FF00FF0000FF00FF00FF0055
:10219000FF0000FF00FF0000FF00FF00FF00000045
:1021A000FF00FF00FF00FF00FFFF00FF0000FF0037
:1021B000FF00FF00FF00FF0000FF00FF0000000025
:1021C000FF00FF00FF00FF00FF00FF00FF00FF0017
:1021D00000FF00FF00FF0000FF00FF00FF00FF0006
:1021E000FF000000FF00FF00FF0000FF0000FF00F5
:1021F000FF00FF00FF0000FF00FF0000FF00FF00E6
:10220000FF00FF00FF00FF00FF00FF00FF0000FFD6
:1022100000FF00FF00FF00FF00FF0000FF00FF00C5
:10222000FF0000FF00FF00FF00FF00FF00FF00FFB6
:102230000000FF00FF0000FF00FF0000FF00FF00A4
:1022400000FF00FF00FF00FF0000FF0000FF00FF95
:1022500000FF00FF0000FF00FF00FF00FF00000084
:10226000FF00FF00FF00FF00FF0000FF00FF00FF76
:1022700000FF00FF00FFFEFFFEFFFEFFFEFEFDFC75
:10228000FBFCFDFEFEFDFEFDFCFCFBFBFDFF01017A
:10229000FFFEFDFE00010001020203020102030431
:1022A0000301000000010303020100FFFEFEFF0026
:1022B000010100FFFEFEFEFF00FF00FF00FF000027
:1022C00001010000FF00000101020100FFFFFFFE0D
:1022D000FFFEFFFEFFFEFFFEFDFEFDFEFEFDFEFD1E
:1022E000FEFEFDFEFDFEFDFEFDFCFDFDFDFF000012
:1022F000FFFFFEFEFF0103030200FEFDFDFF0102E2
:1023000000FDFBFBFE0101FFFDFDFF0001000101DF
:10231000020100FFFEFF00FFFEFE000100FFFDFEC8
:102320000001020100010000010001000100FF00A6
:10233000FF00FFFDFCFDFEFF00FEFDFCFDFEFFFFBC
:10234000FDFCFDFE0000FFFEFEFDFDFEFFFF00FFA9
:10235000FEFDFF0000FFFEFDFEFF000000FEFDFD94
:10236000FEFFFF00FFFEFEFF00FFFFFEFFFF01007C
:10237000FFFFFEFF00FFFEFFFFFF0000FF0000FF6A
:1023800000FF00FF00FF00010000FFFFFE00010151
:1023900000FF0001020100FF000102020100010232
:1023A000020100FF000201010000010201FFFEFE28
:1023B000000101FFFDFDFEFFFFFEFCFBFCFDFDFC3F
:1023C000FBFCFBFAFBFAFBFAFBFAFAF9FAFBFCFB63
:1023D000FAF9FAFBFAFBFAFBFCFCFDFCFBFCFCFD4A
:1023E000FEFDFEFFFEFEFFFEFF00000100010203F6
:1023F0000302010203040504040505060605060799
:10240000080908080808090A090A09070606080948
:10241000080704030405060403030404030201007F
:102420000101FFFDFDFCFAF8F4F1F1F0F0EEEBE94B
:10243000E7E8E7E6E5E4E5E7E8E9EAEAECEDEFF00E
:10244000F1F2F3F7FAFCFDFDFDFF010304040507BB
:102450000809080708090A0B0A0B0C0C0B0C0C0CDA
:102460000D0C0D0E0F0D0A090C121718110B0B1283
:102470001A1C17100D111719150F0C0D10100E0A3C
:1024800008070808060502FEF8F3F0EFEEECE9E4B1
:10249000E0DFDDDAD6D3D2D3D6D8D9D8D8D9DBDFAE
:1024A000E2E4E6EAF0F5F9FBFBFD000307090B0C9B
:1024B0000E1011100E0C0B0C0E0D0D0B0A0806055C
:1024C00003020102020203020000FF0000020305F2
:1024D000060708090808090B0E0F0F0E0F10111040
:1024E000100F100F100F0F0E0D0D0C0B0A0909091C
:1024F00008090809080807060706060400FBF7F59F
:10250000F4F3EFEBE8E5E4E0DCD9D8D9DAD9D9DAAD
:10251000DBDCDCDFE2E4E5E8EDF2F6F8F9FBFDFFF9
:102520000206090A0B0B0D0E0D0B0A090A0C0B0A09
:1025300009070504030201FF000203020100FFFF77
:1025400000010304050607080908090A0B0C0D0E13
:102550000E0F100F100F0E0F101111100F0F101083
:102560000F0E0D0E0F100F0E0F0F0E0C09070401AA
:1025700000FEFDF8F4EFECE9E7E3DFDDDEDDDCD9BA
:10258000D6D7D8D8D9D9DCDDE0E1E3E6E7E8EAED53
:10259000F0F3F5F7F9FBFDFF000102040608090955
:1025A000090809090A0B0C0B0C0C0D0E0D0D0C0D76
:1025B0000F0F10100F10101110100F10101110101D
:1025C0000F100F100F0F0E0D0E0E0F0E0E0D0C0D27
:1025D0000C0D0C0B0A0B0C0B0A09060401FEFCFA8D
:1025E000F9F8F5F1EDEAE8E5E1DDDCDDDEDCDAD98C
:1025F000D9DAD9DADBDCDEE1E4E7E8E8E9EBEFF2AF
:10260000F4F6F9FBFEFF0001010204060708090ABF
:102610000B0A0B0C0B0C0C0E0F100F0F0E0D0D0EEA
:102620000F10100F0F100F100F0E0F0E0F100F0FB7
:102630000E0D0E0D0E0D0C0D0D0E0E0D0C0C0D0EC7
:102640000D0D0C0C0D0C0907050402FFFDFCFAF53D
:10265000F2EFEEEBE7E3E1E0E1DFDDDBDADBDCDC50
:10266000DDDEDFE0E3E5E6E7E8EAEDEFF1F2F4F6E0
:10267000F8FAFBFBFCFDFF01020304060607060750
:10268000080A0A0B0C0C0D0E0E0D0D0E0E0F10117C
:10269000100F101011100F0F10111211100F101039
:1026A0000F100F0F0F0E0F0E0E0D0D0E0D0E0D0D48
:1026B0000C0B0A0908060401FFFEFCF9F4F1EFED2A
:1026C000EAE6E3E2E2E1DFDDDCDBDCDBDCDDDEDF12
:1026D000E1E3E4E5E6E7E9ECEEF0F2F4F5F7F8FA29
:1026E000FAFBFDFF010203030405060708090A0BB4
:1026F0000C0C0D0E0D0E0E0F0F10111111121110EA
:10270000111211121112111211101110100F1010BC
:10271000100F0F0E0E0F0E0E0D0D0C0D0C0B0907EA
:1027200007050301FFFCFAF7F4F2F0ECE9E6E5E453
:10273000E3E1DEDEDDDCDEDDDEDFE0E1E3E4E5E695
:10274000E7E8EBEDEFF0F1F3F4F5F7F8F9FAFBFD5C
:10275000FF0001020203050607080A0A0B0C0D0E12
:102760000D0E0D0E0F10100F100F100F100F101078
:102770000F101110100F0E0F100F0F100F0F0F0F63
:102780000E0F0E0D0E0F0E0E0D0C0B090807050394
:1027900002FFFCF8F6F4F2EEEAE8E7E6E5E3E0DF54
:1027A000DEDFDEDFE0E1E0E2E3E4E6E6E8EAECEEED
:1027B000EFF0F1F2F3F4F5F6F6F5F2F0F2F70001CE
:1027C000F9FAFF050808090E12121012100F151958
:1027D00018140F0E0E1012100F0F0D0C0D0C0C0D07
:1027E0000F141716110F13171B1F1F1E1E1E212556
:1027F0002624201C150E0B0C0C0C03F5E9E1DEDC85
:10280000DAD6D0CBC5C0BDBABCC1C7C9CAC8C8CB4F
:10281000D3DEE9EFF1F1F5FC03080D13181B1A18CC
:1028200017191B1F221F18110A090A090703FDF9AE
:10283000F3EEEDEFEFF0EFEEEAE9EBF0F6FAFBFC8A
:10284000FEFF02080F15191B1C1D1F24282C2E2EFD
:102850002D2B292A2C2B2B2A2725242324231E1514
:102860000A00FBFE0201F3DED0CBCDD0CDC4BDBB50
:10287000B8B3AFB0B9C3C8C8C6C5CAD5E3F1F8F894
:10288000F7FB030C141A212525201C1D22272723C2
:102890001D140C0A0B0A06FFF9F6F2EDEAEBEEF056
:1028A000EDE8E5E7EBF1F6F9FAFBFC01070E141988
:1028B0001E212223272C303536322E2E3132323251
:1028C000302E292018120C080402FFF4E1D2CFD4D4
:1028D000D9D5C7BEBBBCBAB7BAC2C9C8C4C4C9D1AE
:1028E000DCE4EDF3F3F3F8020D15181A1B1A1819AE
:1028F0001D2225211A150F0D0E0E0D0900F7F3F2FA
:10290000F2F2F1EFEDE9E6E6EBEFF3F5F4F5F8FDC1
:10291000050F151A1B1B1F262E353A3B3A393C3E34
:102920003C3A342E2B241813130CFEF0E6E3E3DAC2
:10293000CEC7C6C3BDB6B4BCC2C1BDBCC2C9CED36E
:10294000DAE2E7EAECF3FD03090F121416171A1F77
:102950002221201E1A18171617140E0A0804010047
:10296000FFFDFAF5F1F2F4F5F4F4F6F9FAFD0208D8
:102970000C0E0F121923292A2D2F2F2D2620252941
:102980002B2A1904FDFE0101F7E7E0DED7CEC8C807
:10299000D1D6CCC0BBBFCAD4D5D6D8D6D9DEE3ED0C
:1029A000F7FCFFFEFAFE07111A1A14111314171D73
:1029B0001F1E1B120C0F111315110C070100050827
:1029C0000705FFFBFBFCFF0408080707080C0F12B4
:1029D000161F23221D1819191A1C1A1C1906F6F5A0
:1029E000FA00FDEDDFDEDED7D0CFD5DCD8CAC4C912
:1029F000D2D9DDDCDDDEDBDDE5EFF8F9F7F8F8F95B
:102A0000FF0610150F06050A1116191613100B0AEA
:102A1000101415140F0A08070A10120F0C060509E6
:102A20000D111515121011171E2020232424211911
:102A300013161D1E1B10FBF2F7FBF8F0E2DBDCD7D0
:102A4000CCC5C7D1D7CCBCB9C3CFD6D4D2D7DCDDA7
:102A5000DDE1ECF8FDFBF8F7FC070D1113100C0C91
:102A60000D10171D1A130C090F161614110E0C0B4E
:102A7000090C12120F0A070A0E111416151312145C
:102A80001921252726211E19151921211F12FCF5B0
:102A9000FBFEFEF6E7E0DED5CCCCD0D7D8C8BCBE76
:102AA000C6CED5D4D4D7D4D3D9E3EDF5F3F0F1F035
:102AB000F501090E0D0601050A0E15181510090677
:102AC0000E171A16100B0B0D0E121616110A060A07
:102AD00012181816141416181D23282C2A2118153C
:102AE00018212B2A1A04F9FE0404FCF2ECE8DBCDD1
:102AF000CCD7E3DECABABCC7CED0D0D4D7D2CBCDE8
:102B0000DBEBF4F1EBE9EBF0FB050B0A03FEFF0452
:102B10000B121713090200081316130D0907070AF1
:102B200010181A140C0A0E171D1D1E1D1B1B1F2426
:102B30002B30302B2017161E2E362103FB000809E0
:102B4000FAEEF3F1DECAC6D6EAE4C8B9BEC9CFCD03
:102B5000CCD7DCD0C7CADAEDF1EAE8E9E9EEF50155
:102B60000B08FCF9FE030B12110F0900000A1114E7
:102B7000120C0A08070C141818130E0F14181D2233
:102B8000211C1A1D242B2E2F2D2117151A31391B0C
:102B90000200050C09F7F500F6DDCBCDE4F5E2C83F
:102BA000C3C9D0CFC9D0E3E1CDC0C5DCF0ECE2E1D0
:102BB000E1E4E9ECF90601F5F2F2FC0C0F0C0A0273
:102BC000FE050A0F1616100C0609161D1D1A141202
:102BD00017191B232826211B1D282F322C1E1816DF
:102BE0001C2D28130A080605FCF2FA01F2DCCED3EC
:102BF000E8EFDBCED0D5D7D1CBD8EAE6D7CDD1E33D
:102C0000F0EDE9E7E7EBECECF3F9FBFAF3EDF400B8
:102C10000607FEF7FB020404060A100D030510194F
:102C20001D1711161D1E1F21252B2B25262E353273
:102C30002720202E39261010171910FCF50205F256
:102C4000DBD4E0EEE3CBC6D1D7D1C3C3D5DED3C648
:102C5000C8D6E3E0D9DDE4E7E7E5ECF6F7F3F4F70F
:102C6000FBFF00040A0704050B10120F0D111312CD
:102C70001415191C1815191D1F1F1E202425262781
:102C80002A261F1D1E283324100F14151206FF07B5
:102C900004F3E5E3EDF6EAD6D3DBDDD8D0D2DEDF10
:102CA000D0C7CCD8E2DDD3D7DCDBDCDCE2EDEAE177
:102CB000E2E8EEF4F5F5F8FAF9FB02070C0D0A0A62
:102CC0000E12181D1D1E1E1C1E25292D2D2B2C2FEE
:102CD0003337352D2A282C393520191B1C190D02A4
:102CE000081001EDE2E6F6F5DDD1D8DFDDD1C8D67A
:102CF000E4DBCAC6CFDEDFD3D2D9DAD8D5D7E3E852
:102D0000E1DDE1E5E7EBEEF3F6F1F1F8FE040605AF
:102D1000080C0D10161B1E1F1C1F24272B2C2C2DDE
:102D2000303335342D292A2E3734221A1E1D19111D
:102D3000090B0E02F2ECF0F9F7E7DDE1E5E2DCD990
:102D4000E1E9E1D4D4DDE6E6DDDCE3E2DDDADDE78E
:102D5000EAE1D9DDE3E5E4E5E8EBE8E5EAF1F7FAF5
:102D6000F9F9FC01050B10131717181C232A2E2E36
:102D70002D30353B3C342F31343D3B282126241D5A
:102D8000140B0D1105F3ECEEF5F3E3DADFE2DED719
:102D9000D5DDE4DDD2D4DCE5E5DEE0E8E7E3E3E63B
:102DA000EEEFE6E2E8ECEDECECEFF0ECEAEFF5F854
:102DB000F6F4F6FAFDFF04080B0C0B0E151B21238D
:102DC00023262A2F3536312F30363F3B2D2A2D2A08
:102DD000251C161A1A0BFDF7F8FCF6E8E4E6E2DB10
:102DE000D5D6DFE0D4CCD0D7DAD5D2D9DED8D2D57B
:102DF000DEE6E3DADCE5E7E5E5EBF4F4EEEDF4FE40
:102E00000201FE0307080A0E12161614161A1D22D6
:102E100024242627292E2E2926272E383222202721
:102E2000272118141A1B0CFEFB0105FCEDECF1ED3B
:102E3000E5DFE2EAE9DBD4D9E0DFD9D5DCDFD7D0C2
:102E4000D2DAE0DCD1D2DADDDBDADFE6E7E2E1E8B4
:102E5000F2F7F8F6FA0004080C11161918191E25D5
:102E60002B2C2B2C30353735302E31353934282466
:102E700027251F1712151409FCF8FBFEF8EDE8ECE6
:102E8000EBE4E0E2E9E9E0D9DDE3E4E0DEE2E4DE20
:102E9000D9DBE1E6E1D9D8DEDFDCDDE1E4E3DFDE4A
:102EA000E6EDEFEFF0F3F7FAFE04090D0E10141A39
:102EB0001F25282A2C2E323738343234383E392E0A
:102EC0002B2D2B241C1718160B00FCFCFCF5EBE932
:102ED000EBE8E1DDDFE5E4DCD7DCE1E1DCDBE2E5EA
:102EE000E0DBDCE3E8E4DDDEE4E6E2E0E4E9EAE4BA
:102EF000E3E9F0F2F0EFF3F9FCFDFF040A0C0B0C30
:102F0000121A1E1F20232A2E30312F2F3132373B29
:102F1000352D2A292726211D1A150C06020101FC30
:102F2000F4EFEBE7E7E6E5E5E0DCDCDBDADBDCDC75
:102F3000DBD6D2D5DADBD9D5D5D9D9D6D8DFE3E2FD
:102F4000DEDDE5EEF1F0F1F6FCFEFF040C121311EC
:102F5000131C242827272C323434353838353232A4
:102F6000393D3429252524211913120F05FCF7F8C2
:102F7000FAF5ECE6E4E4E4E2E0E1E1DEDBDADBE012
:102F8000E1E0DDDADADDDFDDDBDBDDDDD9D7DCE278
:102F9000E2DEDBDDE6EBE8E8ECF3F7F7F7FF080C41
:102FA0000C0B101A202224272C323435393C3B38A4
:102FB00035394242362D2B2C2B241A191A1407FBB3
:102FC000F9FEFFF4EBE7E7E7E3DEE0E3E1DCD8D787
:102FD000DBDFDEDCDBD7D8DBDBDBDBDADCDAD6D849
:102FE000DDE1E2DFDCE1E7E7E9ECF1F5F6F5FB0432
:102FF000080B0B0D151B1D1E242A2E2F2F333839BD
:103000003533353B413B2F2B2D2E2A201919191111
:1030100005FCFC00FEF3E9E8E9E9E3DFE1E4E0DBDD
:10302000D7D9DEE0DCDAD9D8D9DADADBDBDADAD8FC
:10303000D8DBDFE0E1DFDFE3E7E8ECF0F2F3F5F91E
:10304000FF05080A0D1115191C21272A2C2D3137CF
:103050003A3A3534373D423B302C2D2D291F191A71
:10306000190F02FBFC00FCF1E9E7E7E5E0DEE1E136
:10307000DCD8D6D9DCDCDADAD9D7D6D6D9DCDBD7BE
:10308000D5D7DADCDCDEE0E1E0E1E4EAF0F3F3F30B
:10309000F7FD03070A0E1215181A20262B2D2E31C4
:1030A00035393B393738383E4139302C2B2A2820E6
:1030B0001916140C03FCFAFBF8F1EAE6E3E3E2E28A
:1030C000E2DFDBDADBDCDDDCDCDDDBD7D6D8DBDD49
:1030D000DAD6D5D6D8DADADBDDDCDDDFE2E6EBEE18
:1030E000EFF1F3F90005080B0F12171C21272B2D08
:1030F0003033393D3F3E3A393A404640362F2A2A4E
:103100002A231C17120C03FAF7F8F5F0ECE4DEDEC4
:10311000DFE2E4E0DBD9DADBDEDFDFE1DFDBD9DBD6
:10312000DEE1DFDDDBD8D8DBDEE1E2DFDCDDE0E4C1
:10313000E9EBEDEFF0F3F8FD02080B0C0F131A2189
:1031400026292D3135393D3F3F3C3A3D46483E33F7
:103150002C2B2F2B201714100900F7F5F5F2EDE8B2
:10316000E1DDDBDBDFE1DDD8D6D7DBDFDEDEDEDC99
:10317000DCDCDBDEDFDFE1DFDADADDE1E5E4E1E163
:10318000E2E4E9ECEEF0F2F4F7FBFF05090C1114B0
:10319000161A21282D3032353A3E3F3C3939404805
:1031A00045392D282C2D271D150F0904FDF7F3EFA8
:1031B000EBE9E5E0DAD5D8DEE1DCD5D1D5DCDFDE40
:1031C000DDDADADCDDDEDFDFE0E1DFDEDFDFE2E615
:1031D000E7E7E5E3E5ECF1F4F2F2F6FB00030609BC
:1031E0000E1214171C22282B303436383A3C3E3B42
:1031F000383C42413A31282629251F180F0602FE85
:10320000F8F3EEEAEAE8E2DAD4D6DCDFDDD7D3D2AF
:10321000D5D9DDDFDCD8D6D9DDDEDCDCDFE1E0DEF0
:10322000DBDFE6E9E8E6E6E8ECF1F5F8F9FAFC00C0
:1032300004080C1014181A1B1E252B303334333697
:103240003C403E3935353E413A2F232023211C1482
:103250000C0601FCF7F2EDE9E7E7E4DED6D3D6DDB4
:10326000DFDCD6D0D1D7DADBDAD7D7D7D7D9D9DBDD
:10327000DCDDDDDDDEDEE0E3E7EAECEBEBEEF4FBEC
:10328000FF010203060B1014181B1D2123272A2FF0
:103290003335373B3A3C3E3C3A37353735322E22D0
:1032A0001D1C17120D0802FBF7F1ECE8E4E2E2E165
:1032B000DED8D3D3D6D9DAD9D5D2D1D4D9DBDAD99D
:1032C000D7D8D9DADADCDEE0E1E1E2E3E4E8ECF0F9
:1032D000F2F2F3F5FB000508090A0E13181C1E2173
:1032E00024272A2E303236383B3B3C3F3A373530A4
:1032F0003235302B241B18120D0A0501FBF4EEE9C0
:10330000E6E2DFDFDEDBD7D1CED1D5D6D4D1CFD048
:10331000D0D2D5D7D6D6D5D7DBDCDCDEE1E4E8E900
:10332000E8EAEEF2F7F9FAFBFE02060A0E111115B1
:10333000181A212322252B2D2F30303132373936E0
:103340003537353430272529292721160F0B080456
:1033500000FEF8F2EDE7E2E0DCDBDADAD9D3CDCB40
:10336000CCCFD1D1D0CECECECFD1D4D5D7D9DBDD35
:10337000DEDEE0E5EAEFEFEFF2F5F8FCFF04070B25
:103380000C0D1315181C20222326292B2C2B2E3232
:10339000313434323332333330312E2928221E1F58
:1033A0001B19160D0702FCF9F5F2EFEAE5DFDBD792
:1033B000D2D0D1D0D0CECAC8C6C7CACDCFD0CFCF39
:1033C000D1D4D6D9DBDFE3E6E8EAEBEEF3F7FCFE97
:1033D000010403080C0D1314141B1B1B1F1E2126B4
:1033E0002828292B28272D2A28302D2A2E2826293F
:1033F0002827232424181A17091111070A01F7F5A1
:10340000EFEBE9E6E4DEDAD8D1CECCC8CBCECDCB3B
:10341000C8C8C8CACFD2D3D6D8D9DDDFDFE4E8ED3B
:10342000F4F7F8FAFBFD03070C0F0E101213161633
:10343000191C1D201D1E211E202221262423251E8D
:1034400025241D29231D261E18201C161C181016A5
:1034500011060704FDFFFEF9F4EEE7E1E1DED9DB3A
:10346000D7D2D2D0CCCAC9CDD0D1D4D3D1D5D5D949
:10347000E1E3E7ECEEF1F4F6F9FC0005080B0B0CC8
:103480000C0E1013141417161515161815181D17F1
:103490001D1E131A1A131E1A151E15161C0F1416AC
:1034A000101411130C090F050609000201FBF9F4B1
:1034B000F2EFEDF0ECE6E9E4DEDFDDDDDBDDDEDBC7
:1034C000DFDEDBDFDFE3E8E8EBEEEEF1F3F6FAFC5C
:1034D00000020306060708090A0E100E100E0D1052
:1034E0000E1013100F13100D14110A11170E0F14D4
:1034F000090B110D0A0F0C03070A0502FF0200FB5E
:10350000FFF8F3F8F7F7F8F2EFF4F3EFF4F6F0F46E
:10351000F2EFF4F5F3F4F5F7F7F5F6F5F6F7F8FA58
:10352000FBF9FAF9F9FDFCFD00FE000201020103BE
:1035300005040708050706050909060A080409071E
:103540000507070903060B000209FE0007FDFD0041
:10355000FCFDF8F9F7F4FBF5F4F9EFF0F5F1F5F609
:10356000F0FAF8F1FFF9F901FC02040305050B0775
:10357000060D0B070A0C0A0A0A08070605040402CE
:103580000302010100FFFDFEFF0000FFFEFEFD0043
:10359000FFFE01FEFE00FDFEFFFBFDFBF9FDF9F560
:1035A000F6F7F7F2F4F6ECF1F5ECF4F4E7F4F7ECF7
:1035B000FAF5EEFAF6F8FBFB02F9FD0903010C0639
:1035C000060E0A0F0B0C140A13160912110B121314
:1035D0000F0E0F0C0B0E0E0A090B09090703050449
:1035E000010202FEFEFEFCFCFAF9F8F7F5F3F6F52F
:1035F000EFEFF1EDECEFEAE9EDE7E8EAE7EAE8EB17
:10360000EAE5F1ECE6F6F1EAFBF8F101FCFC06FD77
:10361000090B01150B06170910160D1A120B1C0FBA
:103620000A190F0E150E140C0915080F1509100DA7
:103630000A0F090C0D0A0908090502010200FCFD28
:10364000FEF4F1F6F0EFEEE8EAE7E7E8E0E3E3DEC8
:10365000E7E1DFEADFE1ECE5EAEDECF0F0F6F3F7C5
:1036600000FBFF030305010C0D040E12090A1410E0
:103670000A14130C13140A16150B180F0E180A103F
:10368000130E120D0E110E0E0D0C0D0A070A0A0470
:1036900007020101FBFDFCF5F7F6EFF0EDE9EDE7C0
:1036A000E6E8E2E7E2E0E7E0E5E7E2E9E8EAEEEBB8
:1036B000F1F1F5F7F6FEF9FC06FF0305070A000C29
:1036C0000D05120A080F080A0B0F110B0B0D0D0C3C
:1036D0000D0C0E110E0E0F0E0B0A120D0E11080B13
:1036E00007090C060B03FE08FFFAFFFBFAF9F5F9D0
:1036F000F2ECF3EDEEEEEAEAE6EDEFE3EAECE9EB0D
:10370000EBF2F0EDF7F3EFFBF9F6FEFDFD02FFFF44
:103710000500030B00060E030807060C05090D083B
:10372000090A0C06080F050D13010B14FF0C1401F8
:103730000D10020A080605010804FD0302F6FCFD4F
:10374000F4F9FBF1F3F7F0F1F1EDF0F1EEF2F1ED58
:10375000F2F2F1F6F2F7F8F6FBF8FDF9F803FEFFE6
:1037600005FDFF06FE0307FF0806FE0C05FE0A071F
:1037700005080905040B04031104040F03060B06D6
:10378000060709040709FD070AFB0604F805FCFC07
:1037900003F3FFFAF0FDF3F5F8EFF6F0F0F7ECF4D1
:1037A000F5ECF7F3EFF9F3F6FBF4FCFBF801FCFFA3
:1037B00004FF030502050806050B06060D03090DA7
:1037C000030D06070D010C09000E05030A0007078B
:1037D000FF0805FF0604FE0402FD01FEFFFDFAFEE0
:1037E000F9FAFAF4FAF9F1F9F6F1F8F4F0F6F3F17E
:1037F000F5F1F6F4F0FAF2F400EEF800F0FEFFF660
:1038000002FEFD03FE0304FE0709020809060A057D
:103810000C0F050F0D040F0D08100B0913090A0EEC
:10382000060B0A080F04040BFE0407FC04FDFA054E
:10383000F5F701EFF6FDEFF1F3EFEFEEF2EEEAF15F
:10384000ECE8F2EEEAF3EFF0F2EFF5F2F1FCF4F768
:10385000FEF5FC03F9FE04FE020601040903031051
:10386000060412030915031111011711021B0B01A4
:103870001E090A1C020D1607120B0C0D031309FF7B
:103880000E00010CFCFC04F8F5FCFAF3F1F5EDEE8A
:10389000F2ECEAEAE9EBEAEAEAE6E7ECEAEAECEB80
:1038A000ECEDF0F4F0EFF5F9F5F9FEF8F90004FFAE
:1038B000FD0A04FC110CFD0F0F021011050D100E76
:1038C0000D13120816110B1C09091F080A1D070BFE
:1038D00018001213FC170AFB1500FF0DFE0200FF73
:1038E00003F4FC00EEFCFAE9FAF3E8F5EDEAF1E99D
:1038F000EAECE7E9EAE8EAEAEAECEBEDEFEFF2F10D
:10390000F3F6F4FCF9F50401FA0703FC05080809CD
:103910000904080B060B09080C070F0A0413050518
:103920001709050F0A060B0C09060B08020B04FF0A
:103930000A0603050101000300FD0200FDFD01FF71
:10394000FCFFFEFEFEFBF9FDFCFBFEF7FAFFF5F6C1
:10395000FAF4F5F5F4F9F4F2F6F3F3F6F4F4F6F913
:10396000F9F8F9F9FCFDFCFE01FFFF020301040573
:1039700003020505010404FF0305FF000200FFFE2A
:103980000001FCFC01FEFA01FEF8FF00FBFE00FB5B
:10399000FDFFFD00FEFA0001FF0103FDFF06FF032E
:1039A00007FE020805050603060B0B0806080B0DAB
:1039B0000E08070C0B0B0D0804060705010301FC9C
:1039C00000FEF7F8F7F6F8F5F2F3F2F3F3F0F2F29F
:1039D000F1F3F4F1F2F5F4F6F6F3F6F7F6F9F8F59B
:1039E000F8F9F9FAF7F8FAF9FAFAF8FBFAF8FE003A
:1039F000F8FA02FDFB0202FF0205020309080408AF
:103A00000B0A0B080E120B0C12120F1014100E15CD
:103A100015101114100D13160F080D0E060A0B04C5
:103A20000402FFFFF7F7FBF4F5F6EBE9EDEBE9EA4B
:103A3000E9E5E8E8E3E6E7E7EBEAE8EAEAECEFF0F5
:103A4000F1F1F2F5F5F6F9F9FBFEFEFEFFFF0103D9
:103A5000050605060505080C09070B0A080D0806EA
:103A6000100D060C0C060B0F0A080B0B0B0B0809AC
:103A70000B0A090B0B03080E07060A0B07040708BD
:103A8000060A0A02020602020603FDFAFFFDF4F42A
:103A9000F6F3F4F0EAEAE8E8ECE9E6E7E7EAE8E575
:103AA000EAEFF1F0ECF0F4F6F7F9FBFDFDFF0000B2
:103AB00002060608070508090809090A0908070592
:103AC0000507050503010301FFFFFF0100FDFDFFE1
:103AD000FEFF000100FF00010404020208080508BF
:103AE0000807080B0E0B090B0B0D0E0D0A09080A2F
:103AF0000B09070402030400F9FAFDFAF7F6F2F0E5
:103B0000F3F4F0EEEFF1F0EEEEF0F3F5F3F1F1F4A3
:103B1000F7F7F5F6F9FAF9F8F7F9FDFCFAFAFAFB16
:103B2000FBFCFCFCFCFFFEFBFBFD0002FEFCFE00C0
:103B3000FF00FEFF0101FF00000104030004060571
:103B40000605090D0B090B0C0F1111111113151599
:103B50001413151819170F0D1417130A05090A0560
:103B6000FFFBFAFCFAF2ECECEFECEAE7E4E5E7E65F
:103B7000E3E0E5E9E8E6E4E6ECEEEEEDEDF0F3F2A5
:103B8000F3F4F6F9F9FAF9F9FCFFFFFDFE00010381
:103B9000000004060502020707060705070B0807D1
:103BA000080A0D0C090B0B0C0F110F0D0F1112143D
:103BB0001210131516151414141212120F0F0D0BE8
:103BC0000C070200FEFDFAF7F4F1EFEDE8E6E7E698
:103BD000E4E3E2E1E0E1E2E3E5E5E3E6E8E9EAEC9B
:103BE000F0F1F2F3F3F7F9FAFCFDFE000101030531
:103BF0000606050607080A09090A0A090A09090A40
:103C0000090908070808070808070605060807073E
:103C100008090A09090A0C0D0D0E0F0F1113100ED9
:103C20000C0A0E100E0903010201FEF8F6F7F5F278
:103C3000EBE7E8EBEBE7E3E2E5E5E5E4E6E9EAE913
:103C4000EAEBEDF2F2F5F7F6F8F9FC0100000303F8
:103C5000040504070A0A080505070A0806050707F8
:103C600004030204050200FFFF0000FF000100FF43
:103C7000FF0103040406080809080A0E12121213B1
:103C8000141513110F0F1217140A02FF040801F87C
:103C9000F6F7F8F2E8E7ECF0ECE5E3E5E7E7E5E86E
:103CA000EEEFEAE7E9F1F5F4F5F6F8F9F8F8FE02D7
:103CB0000100FE0001000205070602FF01050504E0
:103CC00003020302FFFF01030301FEFFFFFE0001E9
:103CD000020300000104070708090A0B0C0E111566
:103CE0001719181715100F131A1F1A0C03000409BF
:103CF0000802FBF5F2EEEAECEFEFEAE4E2E3E2E1E0
:103D0000E2E8EDEBE5E2E3E9F0F3F5F5F2EFEFF4ED
:103D1000FD0302FEFBFCFF0103070A080301030683
:103D20000607090907040001050808060201FFFF4C
:103D300003060909050303070B0D0F1112101012DA
:103D4000171D1E1B150E0C111A1F190C00FAFBFF74
:103D50000102FCF3E8DFDFE7EBEAE5E0DFDCD9D9DD
:103D6000DEE6ECEAE4E0E2E6EBF1F8FBF8F1EFF492
:103D7000FC03060605030100040B0F0F0B080707E1
:103D8000080A0D0F0F0B06050607090B0B0A0703A0
:103D900003060A0D0D0B0A0B0C0E11151718181837
:103DA0001715110B0A1119190E00F7F3F4F6F7F9AC
:103DB000F5EBDDD4D6DFE6E5E2DEDAD6D5D8E1EA0A
:103DC000EDE9E5E5E8ECEFF3F9FDFCFAFAFD0002B8
:103DD00004080A0C0A08080B0C0C0E0E0F0E0C0B34
:103DE0000C0E0E0C0D0E0C0A090A0B0C0B0B0C0D15
:103DF0000C0B0B0D10100E11151719181817140CA9
:103E0000060811151106FBF6F0EBEAEDF0EFE4D72A
:103E1000D2D3D8D8D9DBDCDAD6D5D9E0E4E4E5E9E9
:103E2000EEF0F1F2F4F9FBFC000509070505080CBA
:103E30000D0D0F10110E0C0D0F100E0E0F10100F98
:103E40000D0E0D0D0D0C0E0F0F0F0E0D0F0F10118F
:103E5000111213141617191916110A04070D0F0E53
:103E600007FEF6EFE9E7E8EBE9E3DCD7D7D5D2D2F6
:103E7000D5D9DBDAD9DBDEE0DFE0E6EDF2F3F3F60D
:103E8000F9FAFAFD03080908090B0C0B0B0D0F10CA
:103E90000F0E1011110E0E0F1011101011110F0D29
:103EA0000D10121110111213141313141617181ADF
:103EB0001D1E19110702050C0F0C06FFF6EDE7E6B3
:103EC000E7E9E5DED9D9DAD9D3D0D2D4D7D8DCE343
:103ED000E5E2DEDEE4EBEFF2F4F7F9F8FAFD0205D5
:103EE000030205090C0C0B0C0C0A0A0C0E100E0C2C
:103EF0000C0D10100F100F0E0E0E121413121113C2
:103F0000161819191A1B1C1E2024231E150C0A0C26
:103F10000F100D0700F7F0EAE6E5E4DFDAD8D8D9AC
:103F2000D7D2CFCFCFD1D5DAE0E4E2E0E2E6EAEDD6
:103F3000EFF4F8FBFDFE00020201020508090A0B7E
:103F40000B0B0A0A090A0B0A0B0C0D0D0E0E0E0DB7
:103F50000C0D0E1013141415151617191B1E212401
:103F60002627251F17110F111413100902FBF3ED5B
:103F7000E9E6E3DEDBDADBDAD6D2D0CFCFD1D3D9B4
:103F8000DEE0DFE0E3E6E9EAEDF1F5F8FBFF02034E
:103F900001000103050708090A0A090809090908B7
:103FA000090C0D0D0D0D0F0F0E0D0E101112131625
:103FB00018191A1A1B1D20222425221E181311124B
:103FC000120F0B0601FBF5EFEAE7E3DFDDDCDCDADD
:103FD000D5D1D0D1D3D6D9DCDFE0DFE1E4E7E9EB1E
:103FE000EEF2F6F9FCFEFFFFFEFF010406060708ED
:103FF00009080708070708090B0C0D0C0D0E101215
:1040000013131413141517191C1D1E202224242306
:10401000221F1B17131212100B0601FDF8F2ECE71A
:10402000E3E0DCDAD9D8D7D4D2D2D4D5D5D6D9DB0F
:10403000DEE1E6EAECECEDEFF3F6F9FCFE0001015F
:104040000305060605050709080908070807080A01
:104050000C0D0D0B0D0F1112121417191B1C1D1D29
:104060001F202327292B2926221C171311100E0B82
:1040700005FFF9F4EEE7E1DEDBD8D5D4D4D3D0CD1B
:10408000CED0D2D3D4D7D9DCDFE2E6EAECEDF0F43F
:10409000F8FBFCFDFF0002040608070706080809F4
:1040A00009090A0A0B0B0D0E0E0D0E101316181926
:1040B0001B1B1C1D1E212326282B2E2E2C28231FC4
:1040C00018131214110C04FEF8F1EAE3DEDBD7D466
:1040D000D3D2D3D0CBC8C9CDD0D1D3D6D9DBDDE1B3
:1040E000E6EAEBEDF0F5F9FAFBFCFF00000205064D
:1040F00006040507080706060809090A0C0E0E0D36
:104100000F121619191A1D1F202225282A2C2D30AE
:104110003132312E29231C171716110B04FEF8F02B
:10412000E9E2DDD8D3CFCECFCFCBC6C5C8CACBCC82
:10413000D0D4D6D8DCE1E5E7E8EBF0F6F8F9FBFE01
:10414000FF00010306070606080A0806040507081B
:10415000090A0D0E0F0E10131415171C2124252605
:1041600027292B2E31343535343029201A191A15C8
:104170000F0A05FFF6ECE4E0DBD5D1CFD1D0CAC4FD
:10418000C3C6C8C7C7CCD2D5D6D8DDE2E4E3E7EFD3
:10419000F5F8F7F8FBFEFFFF0205060606080A0819
:1041A0000503040708090B0D0D0C0D101314151849
:1041B0001D2023242526282B2D3032323333322C58
:1041C0002218161A1A130B04FFF8EFE8E4E0DBD606
:1041D000D2D1D3CFC7C2C3C9CAC8CACFD4D5D5D903
:1041E000DEE1E1E2E9F1F5F6F5F7FAFDFE0003059F
:1041F0000506070A0A070405090B0B0C0E0F10121F
:10420000151718191A1E23272726282A2B2C2E307B
:10421000302E30312E24160E1013110B0500FCF237
:10422000E7E0DEDCD7D3D3D6D7CFC7C6C9CCCAC95F
:10423000CDD6DADBDDE0E2E0DEE2EDF3F3F1F1F63C
:10424000FBFBFAFAFDFDFF03080C08020104090B51
:104250000C0E1316181A1D1F1F1E1F252B2C2C2C7D
:104260002D2F30303132302E2F2E271B0F0B0F0FFA
:104270000A01F9F7F3E8DFDBDAD6D0CFD2D6D1C81E
:10428000C4C8CDCFCBCCD3DADDDDE0E5E5E2E1EAB1
:10429000F3F6F3F0F4FAFBF9F9FBFCFCFE02060678
:1042A00001FF020508090A0E1315181D20212021FF
:1042B000242A2F2E2D2E3232303235302C2E323011
:1042C000261B10090C1007FAF2F3F2EDE6DED6CD4C
:1042D000CBCED1D2CFCAC8CACFD1CCCACFD7E0E5D6
:1042E000E8E8E7E6E8EFF5F6F3F2F7000300FBF89D
:1042F000F9FBFF020402FFFD0106090602060E1487
:1043000017191B1E1E1F2326252625272E33312B6A
:104310002B2C2A26282A28211C180F08060501FA0A
:10432000F6F3EFE9E3DDD8D5D3D3D1D0CFCFCECEDE
:10433000CED0D0D1D4D9DFE2E4E7E9E9EAEDF1F279
:10434000F2F6FBFFFFFE000100FF01030303060777
:10435000080C0C0B0B0F1211141C1E1D21221F2008
:10436000201F22252627252728221E1E1F1D1A1F33
:104370001D120C0700FDFEFBF7F5F3EEE6E3E0DAB5
:10438000D6D4D6DAD7D4D3D4D5D6D5D6D9DCDFE2B5
:10439000E9ECEAEAECEEF3F6F5F6F8FC01020101CD
:1043A00000000203070906070B0C0C0C0B0C100E87
:1043B000111B1A161C1C17191B1A1B1A1E231D1B56
:1043C0001D1917161619110E191507081105F4FBFA
:1043D00002F5F0FAF6EAEBEFE5DBDDE0DCDAE0E14E
:1043E000DCD8DADDDDDDDEDFE1E7ECECEEF2F3F088
:1043F000F3FAF9F7FDFF020A06FF070800040E0BA7
:10440000020B12070B130907100E11160F111713C9
:1044100012151A1206151A0D151B120C0E160D0484
:104420000B0F0C02061401F20605F4FBFFF2F2F486
:10443000F2F5EFEDF0EAE9E9E8E8E2E6EBE4E3ECD7
:10444000EDE7E6EEF1EBEEF6F3F0FAFCFAFBF9FB42
:10445000FEFA010A06FF020B04FE0A06FF0B0A041D
:104460000E0D01061107FF0F120409160B0112129F
:104470000106100D09080B06090DFF0710FCFC11C1
:1044800006F90908F3FB0BFFF60103FBF8FDFEF943
:10449000F2F4FCF5EFF8F7F0F1F5F6ECF3F9E9F2E8
:1044A000FAF1F5F5F7FCF2F401F9F1FCFDFAFDFC87
:1044B00003F9F708FEF80604FD00030405FF020AED
:1044C00001010B06FB0910FB031904F8070B0AFD99
:1044D000081601F90C14FBF11C10E20821F6EC0F90
:1044E00011F1F91901EE060BF7F70704F6FA04FFCC
:1044F000F4F908F6EF04FDF2FDFCFAF7F504F4EF29
:1045000005F8F0FEFBF6F6FAFBF3F702F8EF03000E
:10451000F2FDFFFDFDF50301F801FE07FEF514FDB8
:10452000EB1606EF1307F80D010209FD0C0AF90C52
:104530000AF80A1100FE080D02F8110FEFFF18002B
:10454000ED0C17EBF02101E20E10EBF90903F9F085
:104550000509F2FD04FBFAF3FE02F0F707F7F0029B
:1045600000F0F4FFFBEFF608F8EB0502E6FD07ECC0
:10457000FC08F8F9FA0102F0FD0CF6F60E04F20858
:104580000CF90407FE0603010D06F70C14F0031BDB
:10459000F9FA1606F90B0DFDFD0D06F6050CF702EE
:1045A00008F6040AF6FB07FEF80205FAF9FFFFF425
:1045B000F905F8F20001F3F802F2F603F1F702F35D
:1045C000F301FAF0FDFFF3F700FAF40402F003063A
:1045D000F50204FF040306020305030605040608AA
:1045E000030702FD0F02F70D04FA0A08F9030BF99D
:1045F000FF09FE01020004FBFD08FCF90501FA03B6
:1046000002F6FF05F2FD07F3F604F7F300FBF4F8FA
:10461000F9F6F5F8F7F7F9F3F9FCF2FCFEEFFC0612
:10462000F3F809FCF80602FD0707FC070FFE051367
:10463000000214010215FFFF1500FE15FFF610031E
:10464000F80A03FB0603F90305FAFE05FEFC060063
:10465000FA010000FCFE06FBFA04FCF7FC00F9F48A
:10466000FDFBF4F9F7F5F9F2F4FAF3F1FCF6ECFEE0
:10467000FDEBFE01EEFE04F4FD03FDFF0307020265
:1046800008060606070B06060D07050B09030608B4
:104690000804010905FD0704FD0401FF02FE0002F4
:1046A000FDFF0000FFFE0200FD0100FEFFFFFEFD1A
:1046B000FEFFFAFBFFF8F7FDF8F7F8F8F8F2F7F865
:1046C000F0F6F8F2F6F7F7F8F7F8FBFAFBFEFEFD66
:1046D0000103000206050506050709080509090486
:1046E0000B08010A08FF050703000403FF0202FF8D
:1046F00001000100FD0201FB0101FB0001FEFE00C3
:10470000FFFDFFFEFDFFFDFBFDFCFAFBFAF9F8F9EA
:10471000F8F7F9F6F6FAF5F5FBF7F5FBFAF8FBFB17
:10472000FAFEFEFC0001000203030405060406076E
:104730000607070708060506050404050303040227
:10474000010102010001000001FFFF000100FE0065
:1047500000FFFE00FEFCFFFEFBFDFEFBFAFAFBFB8A
:10476000F8F9F9F8F8F9F7F7F9F7F7F9F7F9FAF8C6
:10477000F8FDFCFBFDFEFFFF01020103030406053B
:1047800005080506070706050707040506020404D1
:1047900002040201020101010001000100FF02FF09
:1047A000FF03FEFE03FEFE01FE00FEFCFEFDFBFC21
:1047B000FBFAF9F9F8F7F8F7F5F7F5F6F7F5F5F785
:1047C000F7F8F7F8FBFBFAFDFEFCFE0200FF04051C
:1047D0000305060605070806070705070705060679
:1047E00004040503020302010101010001000100AC
:1047F000FF0100FE0102FF00010000FFFF00FEFEBE
:10480000FEFDFDFCFBFBFAF9F9F8F7F6F8F7F5F613
:10481000F6F6F5F6F6F7F8F9F8FAFBFBFCFEFEFF04
:104820000101020403050604070905050906060837
:1048300006050605040403040301010200FF01004C
:10484000FE0000FFFFFF0100FD0102FE000200006C
:10485000000001FEFF00FDFDFEFDFBFBFBF9F9F88A
:10486000F9F7F7F8F6F5F7F7F5F6F8F6F7FAF9FAD3
:10487000FCFCFDFEFFFF020302030505050606061C
:1048800007070605070604060503040303020001E3
:1048900001FF0000FFFEFE00FEFEFFFFFEFF00FF27
:1048A000FF0001FFFF0100FE0001FEFE00FDFDFF15
:1048B000FDFBFCFBFAFBFAF9FAF9F9FAF8F9FAF858
:1048C000F8FBF9FAFDFBFBFEFEFDFE010000030212
:1048D0000205040405040605050605030505030392
:1048E0000403010202000001FFFE0000FDFEFFFFC5
:1048F000FEFDFFFFFDFE00FEFE00FEFEFFFEFDFED4
:10490000FEFDFEFCFCFEFCFAFCFCFBFCFBFBFCFBE6
:10491000FAFBFBFCFCFBFCFDFDFEFCFE00FE0001C7
:104920000000030201020402020303030304030262
:1049300003030202030201020200000100FF00FF64
:1049400000FFFEFFFFFEFEFFFEFEFFFEFFFEFEFF7E
:10495000FDFDFFFDFDFDFDFEFDFCFDFCFBFCFCFA8D
:10496000FCFBFBFCFBFBFDFBFCFEFCFCFEFEFDFE82
:10497000FF00FF000201010202020402030503041A
:104980000302030302020302020101000101FE000F
:1049900000FEFFFFFEFFFFFEFEFFFEFDFEFFFEFE30
:1049A000FFFEFEFFFEFEFFFEFDFFFEFCFEFDFCFD2A
:1049B000FCFDFCFCFDFCFBFCFCFBFCFCFBFCFDFC37
:1049C000FBFDFEFCFEFFFEFF0000000102010104F2
:1049D00003010404020404030304030302020301A9
:1049E000010201FF00FFFEFFFEFDFFFEFDFEFDFEDA
:1049F000FDFEFDFEFDFEFEFEFFFEFEFFFEFEFFFED7
:104A0000FEFFFEFEFFFEFDFEFDFDFEFDFCFDFDFBCF
:104A1000FDFEFCFDFEFDFEFDFDFFFEFD0100FE01B5
:104A200001FF020201020203030202030203020366
:104A300002020102010100010000FFFEFFFEFDFE77
:104A4000FDFCFCFDFBF9FAF9FC0200FC0000FDFD99
:104A5000FFFFFF0102010100FF00FF0001FEFFFF59
:104A6000FEFDFEFFFEFCFDFEFDFEFEFDFAF8F7F882
:104A7000FC0203000000FF01000003030304030124
:104A80000202020203030200010000FEFFFFFEFE1D
:104A900000FFFDFFFEFCFEFDFCFEFEFCFFFEFBFE3C
:104AA000FFFCFEFFFDFEFEFDFF0100FFFEFFFEFF1F
:104AB000FF0000FFFEFEFEFFFFFEFFFEFF00FDFE0B
:104AC00000FFFF00FFFFFFFCFF00FAFAFFFBFB0205
:104AD000FFFA0105FFFE03FFFC03040303020402C7
:104AE000FEFF01FF000505FEFD00FEFF00FD0201C7
:104AF000FCFF00FBFDFFFD00FFFBFDFFFCFBFCFDE1
:104B0000FEFE0000FEFEFEFEFDFBFDFFFEFF0100BF
:104B1000FEFE00FFFE0101FF0001FFFDFCFAF8F8B8
:104B2000FAFDFEFDFDFEFDFDFF0205060708080774
:104B3000070605050607060605020002FFFCFCFD48
:104B4000FCFAFBFDFAF8F9F9F9F9FBFCFEFEFDFFB2
:104B5000FFFDFEFEFFFF0000FF00FFFDFCFDFCFC73
:104B6000FDFEFDFCFCFBFBFAFAFAFBFCFCFDFCFC89
:104B7000FCFCFBFDFDFDFEFEFF0102010201020344
:104B8000040507080908090B0B0C0D0F1011121270
:104B900012131213131414110F0A0400FCF7F2F08D
:104BA000F1EFEBE7E2DCD8D8D7D6D6D7DBDFE2E50A
:104BB000E7E7EAEFF5FB010506070C1111121211E8
:104BC0000F1113120E0B08060502FCF8F8F7F5F6A4
:104BD000F4F1EFF1F4F6F8F9FC01070C1013161BD1
:104BE00021282D2E303234373735312E2C281F1105
:104BF00002F7F2EFE9DFD6CEC8C3BBB3AFADB1B8B1
:104C0000C1C7CACDD2DCE5ECF3FA06141F262A2A66
:104C10002A2C2E2F2E2B28262621180C02FBF5EFEE
:104C2000EAE3DBD7D4D4D2CECACBD0D9DFE3E7EEE8
:104C3000F700070C11171D262E3232333437383661
:104C4000322F2E2F2F2D272019151413100A040090
:104C5000FCF4E8DCD6D5D7D7D4D3D2D0CDC9C8C7D9
:104C6000C8CCD4DCE5EBEDEFF3F8FCFF020910173C
:104C70001D1F1F1E1B18161413100D0B0A0803FD11
:104C8000F8F4F2F0EEEEEEEDECEDECEBECEFF1F52E
:104C9000F9FE03070C0E1012131413131415141538
:104CA0001311100D0A080706040200FFFDFBF9F8B6
:104CB000F9F9F8F9FAF9FAFBFCFDFEFF000102032D
:104CC00003030304050404020101FFFEFCFBFAFBDD
:104CD000FAF8F9F9F8F7F8F9F8F9F8F9F8F9FAF94A
:104CE000FAFBFAFBFCFBFAFBFBFAFAFBFBFCFDFC14
:104CF000FCFBFAFAF9F9FAF9F9FAFAF9F9F8F7F81E
:104D0000F8F9FAFBFDFE00010203040608090B0C8A
:104D10000D0C0D0E0D0E0D0D0C0C0C0B0B0A0A09D3
:104D20000A0909080809080708070607060605040E
:104D300003020100FEFEFDFBFBFAF9F8F7F8F7F7B6
:104D4000F6F5F4F5F4F3F4F3F3F2F3F2F1F2F3F22F
:104D5000F1F2F1F0EFEEEFEFEFF1F0F1F2F3F4F545
:104D6000F4F5F7F8FAFCFEFF010203040506070953
:104D70000A0B0C0D0E0F100F1011101111100F0F48
:104D80000E0D0D0C0B0A0A0908080706070607078F
:104D90000707070807080706060504030200FEFDCB
:104DA000FCFAF8F5F3F2F0F0EFEEEEEFEEEFEEEEE8
:104DB000EEEDEDEEEFEEEFF1F0F1F2F2F3F3F4F5EC
:104DC000F5F6F7F8F9FBFCFEFF0101020304050507
:104DD000060607080708070607070706050606056B
:104DE0000405040504040506050605050605050673
:104DF0000606050605050606050405040304030466
:104E0000030304030404030203020100000100FF82
:104E1000FF00FFFEFDFBFAFAF9F8F9F8F7F8F7F8EA
:104E2000F7F6F7F6F7F6F7F6F6F6F6F6F7F6F7F61C
:104E3000F7F7F6F7F6F5F6F7F6F7F8F8F9FAFAFBFA
:104E4000FCFCFDFDFEFFFF00010203040504050458
:104E50000506050405060506050605040505040402
:104E600005030405040506050607070808070809E1
:104E7000090A0A090A0B0A0A0A09090908080605A3
:104E800004030100FFFEFDFCFBFAF8F6F5F3F2F275
:104E9000F1F2F2F1F2F3F2F3F3F2F3F4F3F4F3F4E8
:104EA000F4F4F3F4F5F5F6F6F6F7F7F6F7F8F7F8A5
:104EB000F9FAFAFBFBFCFDFDFEFDFEFF000102031B
:104EC000050606070708090A0A0B0C0B0C0C0D0D4A
:104ED0000E0D0D0D0C0D0C0B0A0A0908070807062C
:104EE000060504020200FF00FFFF00FFFEFFFEFFB9
:104EF00000FF0000FF00FF00FFFEFEFEFDFCFCFACD
:104F0000F9F8F7F5F4F3F2F1F1F2F1F1F2F1F2F26E
:104F1000F3F2F3F2F3F3F4F5F5F6F7F8F9F9FAFB37
:104F2000FCFCFDFEFEFF000102030405050606056C
:104F3000060605060506050606050605050504051B
:104F40000405040504050405040506050605060711
:104F500006070607070605060506050504040303FC
:104F60000202010202010000FFFFFEFDFDFCFBFA50
:104F7000FAF9F8F8F7F7F6F5F4F5F4F3F4F4F5F5D3
:104F8000F6F7F8F8F9F9FAF9FAFBFBFAFBFAFBFA8B
:104F9000FBFAFAF9F9F8F8F7F6F7F6F7F8F7F8F98F
:104FA000F9FAFBFCFEFEFF01020304050608090AEC
:104FB0000B0C0D0D0E0E0F0E0F0F0E0D0E0D0C0B1C
:104FC0000A0908070605050402020100FFFFFEFEAC
:104FD000FDFCFDFCFDFDFCFDFEFEFFFF00000100F1
:104FE00001000101000100FFFFFEFCFCFAF9F8F7E7
:104FF000F5F5F4F3F2F1F1F0EFEFF0EFF0F1F0F19D
:10500000F2F3F4F5F6F7F8FAFCFDFEFF00020203F6
:10501000040506060707080708070706060504052E
:10502000040403020302030203020303040304054E
:10503000050405060506050606060506050404041E
:105040000302020100FFFEFEFDFCFCFBFAFBFAFB83
:10505000FAFBFAFBFBFCFDFDFEFEFFFF0000010179
:1050600002010201010000FFFEFDFDFCFCFBFAFB5A
:10507000FAF9F9F8F8F7F6F7F6F7F6F7F7F7F8F7B9
:10508000F8F9F9FAFAFBFBFCFCFDFEFFFF00010258
:1050900002030403040504050405040505040304D0
:1050A00003020203020102010201020201020102E3
:1050B00001020102010203030201020102020102D4
:1050C00003020302030203030302030203020302B7
:1050D0000302020202010100FFFEFEFDFCFBFBFADF
:1050E000F9F8F7F6F5F5F4F3F4F4F3F4F4F5F5F66E
:1050F000F6F7F8F8F9FAFBFCFCFDFEFFFF000101F2
:105100000102010201020102010202010201020187
:10511000020102010001000102010202010202017A
:105120000203020304040404050405040504050441
:105130000303030202010000FFFEFDFDFCFBFBFB7D
:10514000FAF9FAF9F9FAFBFBFBFCFDFDFEFF0001A1
:10515000010202030404050405050404030201011D
:1051600000FFFEFDFCFBFAF9F9F8F7F7F6F7F6F7A2
:10517000F6F7F8F7F8F9FAFAFBFCFDFEFF0001017B
:1051800002020304030304040403040303020101F1
:1051900000FFFEFEFDFDFCFCFBFCFBFCFBFCFCFD44
:1051A000FDFEFEFFFF0001020303040405060506E1
:1051B00007060506050605050404030202010000B2
:1051C000FFFEFEFDFEFDFDFCFCFDFCFBFCFCFCFD12
:1051D000FCFDFDFEFDFEFDFEFDFDFCFDFCFDFCFB02
:1051E000FBFBFAFBFAFBFAF9FAFAFBFAFBFAFBFB18
:1051F000FCFCFDFEFEFFFF000101020102030203B1
:10520000020303020302030203020102020102017C
:10521000020102010201020102030203020302036E
:1052200002020102010100010000FFFFFEFEFDFD80
:10523000FCFBFCFBFAFBFAF9FAF9FAF9FAF9FAFACB
:10524000FBFBFCFDFDFDFEFEFFFF00000100010277
:10525000020102020101000100010000FF00FFFE47
:10526000FFFFFEFEFDFEFDFEFDFEFDFEFFFEFF005C
:105270000001000102010203020302030203020310
:105280000201010100FFFFFEFEFDFDFCFBFCFBFA3D
:10529000FBFAFBFAFBFCFBFCFCFDFDFEFEFFFF0046
:1052A00000010102020302030203020303020201DE
:1052B0000000FFFFFEFDFDFCFBFCFBFAFBFAFAFB26
:1052C000FAFBFCFCFDFDFEFEFF00010102020304EF
:1052D000030304040504030403030202010000FFA6
:1052E000FFFEFEFDFCFCFBFCFBFCFAFBFBFCFBFCFD
:1052F000FCFDFDFEFEFFFF000001020203020302AF
:105300000303020302030202010000FFFFFEFEFD91
:10531000FDFDFCFBFCFBFCFBFCFBFCFBFCFBFCFCD1
:10532000FDFCFDFEFEFDFEFFFFFEFF00FF00FF0097
:10533000FF00FFFF00FF00FF00000000FF00FF0074
:1053400000FF00FF00FF0001000100010202010256
:105350000102030203020302010201020101010032
:105360000000FFFEFFFEFEFDFEFDFCFDFCFDFCFD62
:10537000FCFDFCFDFCFDFCFDFEFDFEFDFEFFFEFF59
:10538000FEFFFFFFFFFEFFFEFFFEFFFEFEFDFEFD38
:10539000FEFDFEFDFDFEFDFDFDFEFEFDFEFEFEFE34
:1053A000FFFEFEFDFBF7F3F2F2F8FFFFFBFDFDFA57
:1053B000FBFDFF020405050605050608090A0907A5
:1053C000060706050405040506080707070606067E
:1053D000050304050605060504030200FFFEFBF9AC
:1053E000F9FAF9F8F9F8F9F8F9F8F7F8F7F6F7F73C
:1053F000F6F7F6F6F7F8F7F6F7F6F7F6F7F8F7F840
:10540000F9F9FBFCFCFDFEFFFF00000103050607A8
:10541000090A090B0C0D0E0F0F101213121314149E
:1054200015181B1D2022211F190EFFEFDBCABEB766
:10543000B2B2B8C2D3E2EDF702090E1013171A1D6B
:1054400023292F2F2921180CFCE9D9CCC3BDBDC4B9
:10545000CDD6E1EDFA050A0B0E121516191D202105
:10546000201E190F02F5EBE2DAD3D0D2D7DEE7F235
:10547000FE05090F1519191817181A191817140FFE
:105480000A0703FFFAF7F6FAFF01050A0F14191DC0
:10549000242A30373F3D2B0BE5C9BFB39D8F8FA426
:1054A000C4D7E5F7070F131A2323180F172D393226
:1054B000221E1B10FDE5D2C1ACA2AFC5D4D9E501B7
:1054C0001E2E2B252522191010110A01FE060C0292
:1054D000F0E3DFDDD7D2D4DCE5F2051C2A2B282847
:1054E0002B281C0D0401FEFCFF01FFFBF9FD02004F
:1054F000F9F3F5FC01060B11171C232E363938374A
:105500002F17F0C4ACA89C92929FC2E0EF08232E04
:105510002D2528302917090F1F1F140E0B03F1DE4C
:10552000D5D3C8B3B3CBE7F901102937372F2B28D0
:1055300014FAEFF1F4ECE1E4EEF1EAE5E8E9E3DF97
:10554000E6F501060D182427201C191005FCFC02A5
:1055500002FF01080F0E08060704FDF9FD0205040D
:105560000913181A1A1E242827251A04E0C0B9B7EF
:10557000B0AAACC1E1F503172426201B201F11029D
:10558000FE0913110A0601F7EDE4E3DED0CBD8ECF7
:10559000FE0408131C1F1D181203F0E7EBF2F1EBD9
:1055A000EDF6FCFCF9F6F1E9E6F0FF08080A121B3B
:1055B0001C150E0702FCFA01090B0A0D151C180E2A
:1055C0000703020000020405070F181D1C1A1E2401
:1055D000200DEFCCBAB9B6B8BEC4DAF3061D2A273F
:1055E0001F1717160AF9F0F1F7FD000401F6F0EFA6
:1055F000F0EFE5DDE5F4031014181914120E07FBA3
:10560000EBE1E2E7EDF1F5FAFF02060700F5ECEF5A
:10561000FB0203060A0F110F0E09FEF5F4FB040648
:10562000060C151D1E1A17120B06060808040307A0
:105630000D1315161A1B1100E6C8BAB7B4BBC6D3B2
:10564000ED041428312C251C181202F3EBEAEEF1BC
:10565000F3F7F5F0F0F3F6F8F3F0F8010C13131488
:10566000110C0903FCF3E6E0E2E6EBF0F3F8FDFED3
:105670000000FF0203050B0F1212100D0903FFFAC1
:10568000F6F7F6FA01060C111518181614110E0C7F
:105690000A090B0D1115181E231D0AECC6B1AFAA7D
:1056A000AAB5C2E10218313F3B322A241A06F1E8BA
:1056B000E7E7EBEDEFECE3E4EBEEEFEBEDFB0816E9
:1056C00022222320181306F5E6D8D7DFE4EBF0F307
:1056D000FBFEFCFEFEFBF9FA01090D0F0F11131280
:1056E0000D0904FFFDFCFF030205080C1010101249
:1056F000101011131718181B22282B210CEFCDBAEC
:10570000B5AAA6ABB2CEEC01192420232629261572
:105710000702000102FDF6EADFE0E2E1DED9DFF197
:1057200001141F2022201C190EFEF0E5E3E9ECEB2A
:10573000ECEEF1F5FC00FDFBF9FB06080707070B93
:105740000E0D0C090604050A0D0C0A0A0D11120EA5
:105750000C0A080A0D0E100F10161E221C0CF6DB88
:10576000CDCAC4C4C9CEDFF3020F100A090A0B095F
:1057700003FEFCFC030A0901F6F1F1EEE9E7E7E7B5
:10578000EFFA08100E0E0F0E0B03F8EFE8E6E9EE45
:10579000F1F5FC02090D0D0A050102030200FF00EC
:1057A0000304070A0A0B0B0D10110F0E0E10131530
:1057B0001616151312100D0C0B0A0A05FBE7CFBEC7
:1057C000BFC4CBDAEAFB0A12191B13090200FFFB64
:1057D000F9FBFCFDFEFDFBF4EBE5E2E1E4E9F0F7AB
:1057E000FF09111313100801FAF6F3EDE9E9EBF1E3
:1057F000F70109090A0B0C0F0C090A0A0B0C0D0B17
:1058000007030204080808080A0D101111101213EA
:10581000141512100D08050401FEFAF4EDE3DEDEA6
:10582000DDDEE5EBF5FAFC01020303FFFEFCF9F90E
:10583000F8F7F8F7F5F2F0EFEEEFF1F4F8FBFF040C
:10584000080604040301FDF8F6F1EFF0F3F7F9FAA6
:10585000FE0105060607090E121415141513100E85
:105860000C08040203060708090B0D0F10100F0F98
:105870000F1013151616130B02F7EBE3DAD3D3D47C
:10588000D9DFE2E9EDF0F6F9FCFDFCFEFE000404D0
:105890000200FF00FEF9F6F4F2F2F4F7F9F7F6F978
:1058A000FBFBF9F7F6F7FAFC000201000305070716
:1058B00006080A0D0E0D0C0B0C0C0F13141412110C
:1058C000100C080403020102010203020203020396
:1058D0000405080A0B0A090601FEFAF5F1EEECEBE5
:1058E000EAEBEBEEF0F2F3F3F4F5F5F6F5F7FAFC8C
:1058F000FBFCFBFAF7F6F5F6F5F6F9FCFEFF000205
:1059000004040405040402FFFEFFFF000002050773
:1059100007080706050100FFFDFCFDFE0103040664
:1059200007060402010100FF000103060706050344
:1059300001FEFCFBFAF9F9FBFE0002050607050370
:10594000FFFCF8F4F2F2F4F6F8FAFE0102030203A7
:105950000201000000FFFEFF01020101020201003E
:1059600000FF00010001020102020303040303041B
:105970000304030403020100FFFDFAF7F6F7F6F54E
:10598000F6F8FAFCFD0003040304030301FEFCFB2C
:10599000FAF9F9FAFBFCFDFEFF00FF0000FF00FF33
:1059A000FEFFFFFEFDFEFDFEFDFCFBFCFDFDFEFE21
:1059B000FF0001030505040403020100FFFF0001CD
:1059C00002030302010101010000010202030303BB
:1059D00002020100FFFEFEFEFEFEFDFEFDFEFDFBDF
:1059E000FAFAF9F8F8F9FAFCFCFDFE0000FFFEFFF8
:1059F000FEFDFCFDFDFEFDFEFEFFFFFEFF000101C2
:105A00000203040403030201FFFDFDFCFDFDFE0093
:105A100002030303040301FFFEFDFCFBFCFDFDFE8E
:105A2000FDFEFEFDFCFDFDFDFEFF02040506060772
:105A3000050300FFFDFBF9F8F8F9F9FAFCFEFF0099
:105A400001020201FFFEFFFFFEFDFDFEFDFDFCFD6C
:105A5000FEFEFE0002040405060505040201FFFE29
:105A6000FEFDFDFEFDFDFCFDFEFDFBFCFDFEFFFF62
:105A70000102030203020200FFFEFDFCFBFAFBFB36
:105A8000FAFBFAFBFAFBFBFDFDFEFF000203040339
:105A9000040303020100FEFCFBFCFCFDFDFF010210
:105AA00002030404030201020100FF0000FFFFFFE4
:105AB000FEFEFCFBFBFCFDFDFF00020102030302F6
:105AC00000FFFFFEFEFDFEFFFEFDFEFDFEFCFCFBFB
:105AD000FAFAFBFDFF00010203020301FFFEFCFADC
